:020000040800F2
:100000003049002001030008C9380008D334000833
:10001000C538000855160008E54600080000000035
:100020000000000000000000000000004102000885
:100030008D160008000000009D02000839410008EC
:100040001B0300081B0300081B0300081B03000818
:100050001B0300081B0300088F16000899160008F0
:10006000A3160008AD1600081B0300081B030008B8
:100070001B0300081B0300081B0300081B030008E8
:100080001B0300081B0300081B0300081B030008D8
:100090001B0300081B0300081B0300081B030008C8
:1000A0001B0300081B030008ED4200081B030008A7
:1000B0001B0300081B030008FD4200081B03000887
:1000C0001B0300081B0300081B0300081B03000898
:1000D0001B0300081B0300081B0300081B03000888
:1000E0001B0300081B0300081B0300081B03000878
:1000F0002D4300081D4300081B0300081B030008D4
:100100001B0300081B0300081B0300081B03000857
:100110001B0300081B0300081B0300080D43000815
:100120001B0300081B0300081B0300081B03000837
:100130001B0300081B0300081B0300081B03000827
:100140001B0300081B0300081B0300081B03000817
:100150001B0300081B0300081B0300081B03000807
:100160001B0300081B0300081B0300081B030008F7
:100170001B0300081B0300081B030008000000000D
:100180001B0300081B03000800F002F800F049F808
:100190000AA090E8000C82448344AAF10107DA45E2
:1001A00001D100F03EF8AFF2090EBAE80F0013F0EB
:1001B000010F18BFFB1A43F001031847205C000031
:1001C000405C0000103A24BF78C878C1FAD85207C2
:1001D00024BF30C830C144BF04680C6070470000C1
:1001E0000023002400250026103A28BF78C1FBD840
:1001F000520728BF30C148BF0B607047662905F021
:100200006381002070471FB505F059F900F034FCF8
:1002100004000020002105F095F8E0601FBD10B536
:1002200010BD00F029FD1146FFF7EDFF04F098FA2C
:1002300000F047FD03B4FFF7F2FF03BC00F08AFDB6
:100240002C4B19680868B0E8F04F80F30988BFF3B9
:100250006F8F4FF0000080F311887047000000009E
:1002600008480068006880F308884FF0000080F3B9
:10027000148862B661B6BFF34F8FBFF36F8F00DF94
:1002800000BF00BF08ED00E0DFF80C00016841F49A
:1002900070010160704700BF88ED00E0EFF3098056
:1002A000BFF36F8F134B1A681EF0100F08BF20EDBD
:1002B000108A20E9F04F106009B44FF0500080F32D
:1002C0001188BFF34F8FBFF36F8F04F053FE4FF0D1
:1002D000000080F3118809BC19680868B0E8F04F85
:1002E0001EF0100F08BFB0EC108A80F30988BFF32E
:1002F0006F8F704794000020EFF305807047000077
:100300000948804709480047FEE7FEE7FEE7FEE7A9
:10031000FEE7FEE7FEE7FEE7FEE7FEE704480549E5
:10032000054A064B70470000194200088901000881
:100330003043002030490020304500203045002067
:1003400053EA020C00F069802DE9F04B4FF00006F3
:10035000002B1FBFB3FA83F503FA05F424FA05F660
:100360005E4012BF1643B2FA82F502FA05F4C5F1F7
:1003700020051EBF22FA05FC44EA0C04203556EA8B
:10038000044C4FEA144418BF641C4FF000084FF0AF
:100390000009904271EB030C39D3002919BFB1FA5F
:1003A00081F701FA07F6B0FA80F700FA07F6C7F10D
:1003B00020071EBF20FA07FC46EA0C062037B6FBD2
:1003C000F4FCA7EB0507103F07F01F0BCBF120064D
:1003D0000CFA0BFB2CFA06F644BFB3460026202F7E
:1003E000A4BF5E464FF0000B5BEA060C08BF4FF05F
:1003F000010B19EB0B09ABFB027C48EB0608C01B99
:1004000006FB02CC0BFB03CC71EB0C01C1E70B46E6
:10041000024641464846BDE8F08B13B54FF0000058
:100420004FF00001AFF30080BDE81C4070470000B2
:100430000FB41CB5074B06AA7B446946009005988B
:1004400000F001FB0020694600F010FB1CBC5DF8C9
:1004500014FB0000310600002DE9F0474FF0000AC0
:1004600089460446C0F820A02046E1688847002855
:1004700076D0252806D0D4E901219047206A401C77
:100480002062F1E7E168204600258847C4F81CA0F7
:1004900006460027C4F818A02A2E09D0304604F0DA
:1004A00057F938B304EB8708303EC8F8186019E0F4
:1004B00059F8041B204604EB87029161E1688847E4
:1004C000012F064618D1E069002820DA25F0200522
:1004D0001DE0D8F8180000EB800006EB4000303833
:1004E000C8F818002046E1688847064604F030F94D
:1004F0000028EED1012F0AD02E2E08D12046E16827
:1005000088477F1C0646022F45F02005C4DBA06902
:10051000002803DA404245F00105A061E80701D058
:1005200025F01005B6B1A6F14100192802D82036F1
:1005300045F400654A463146204625604D46FFF7A2
:100540005DFE58B1012806D0ED1D25F0070000F131
:10055000080989E704E005F1040985E730468AE7E0
:10056000206ABDE8F08710B5203AC0F00B80B1E8F2
:100570001850203AA0E81850B1E81850A0E81850D8
:10058000BFF4F5AF5FEA027C24BFB1E81850A0E8E1
:10059000185044BF18C918C0BDE810405FEA827CFB
:1005A00024BF51F8043B40F8043B08BF7047D20712
:1005B00028BF31F8023B48BF11F8012B28BF20F8B3
:1005C000023B48BF00F8012B70474FF0000200B516
:1005D000134694469646203922BFA0E80C50A0E866
:1005E0000C50B1F12001BFF4F7AF090728BFA0E814
:1005F0000C5048BF0CC05DF804EB890028BF40F8E0
:10060000042B08BF704748BF20F8022B11F0804F21
:1006100018BF00F8012B704770477047704770474C
:100620002DE9FF4F0C461E464FF0FF378BB0D2E945
:100630000001DDF860800A908A46C1F30A5505B9C9
:100640003D46002108464FF00000BAF1000F00F4CB
:10065000400005DA00EB80004FF4400101EA500051
:100660004FEA9059B9F1010F00DDB9460A9850EAF6
:100670004A000ED044F61050A5F2FF3545432F1422
:10068000B8F1000F1ED07542291E1EDDC9F100020F
:100690001CE0B8F1010F4FF0000001D0302103E061
:1006A000F24305E02154401CB042FBDB30460022FF
:1006B000002121540B99C1F80880C1E900200FB036
:1006C000BDE8F08FBD1B6D1CDEE74A4600DA6942CB
:1006D00006A800F05BFA06AB93E8070003AB83E8DB
:1006E000070050460A9900F03CFB8DE80700A0F592
:1006F00000501F3800900398002D0ADD42F21F01C0
:100700004A460844002303A90390684600F0A5FD6B
:1007100009E0A0F500504A461F38002303A90390C2
:10072000684600F0AFFD8DE807000004000C03D020
:100730004FF0FF30410800E01046B8F1000F03D041
:100740000022009215461EE0751E05D400F098F9AF
:10075000303262556D1EF9D5B3460122084302D0EE
:1007600000227F1C04E02078302801D100227F1E67
:10077000002A099784D01DE0112D07DA00F080F9D6
:10078000303262556D1C50EA0102F5D1084302D0A7
:100790000098C8B10EE00021681E05E0235C625C91
:1007A00063542254401E491C8142F7DBAB46A81B10
:1007B000401E0990002004F80B000B98099AC0F81D
:1007C0000880C0E9002B7AE711264FF0000857E7B0
:1007D0002DE9F04F88460446D21D22F0070191B062
:1007E000D1E90001CDE90A0103F07EFF02460B9832
:1007F000C00F01D02D2007E02068810701D52B20F4
:1008000002E0202101EAC000032A099001D0072A52
:1008100005DB03464146204600F078F90BE12078DD
:10082000800601D5E06900E00620B8F1650F814639
:1008300006D0B8F1660F18D0B8F1670F70D131E06B
:100840000020B9F1110F009001DB112301E009F143
:1008500001030AAA01A90CA8FFF7E2FEDDE90C706A
:10086000002609F10105834647E001204B46009030
:100870004FF000470AAA01A90CA8FFF7D1FEDDE955
:100880000DB00C995D46002610B909F101000D1854
:10089000B9EB050003D4C0F1FF3609F10105A5EB62
:1008A00009002BE0B9F1010F01DA4FF00109002036
:1008B000B9F1110F0090484601DD112300E0034615
:1008C0000AAA01A90CA8FFF7ABFEDDE90C704D46A2
:1008D00000268346207800070AD4AB4500DA5D463F
:1008E00001A8012D04DD411911F8011C302907D0A0
:1008F0004F4502DA17F1040F04DA012082460FE0B7
:100900006D1EEEE7002F02DCED1B3E4403E0781C79
:10091000A84200DD7D1CB81B00F1010A4FF0004722
:100920002078000703D4AA4501DB4FF0FF3A0021ED
:10093000B7F1004F0DF143088DF8431024D0022089
:100940002B23002F01DA7F422D230A21021EA0F162
:10095000010000DC5FB197FBF1FC97FBF1F201FBBA
:100960001C7C17460CF1300C08F801CDEEE7A8F11D
:10097000010003702188090501D5452100E06521AA
:10098000A0F1010800F8011C09980FA9A1EB0807C4
:10099000FF1D00B10120411901EBEA70A169384443
:1009A000081A401EA0612078C00602D42046AFF38A
:1009B0000080099828B1D4E901219047206A401CA1
:1009C00020622078C00622D52046AFF300801EE0CA
:1009D000002E04DBB34502DD01A8805D00E030207D
:1009E000D4E901219047206A401C2062761CAAF1BC
:1009F00001005FEA000A0AD100F03EF8C068016811
:100A0000405CD4E901219047206A401C2062281EE6
:100A1000A5F10105DCDC07E0D4E9012118F8010BA0
:100A20009047206A401C2062381EA7F10107F3DCC2
:100A30002046AFF30080032011B041E601694A1C53
:100A400002610878704700B58FB0CDE9013100210F
:100A5000059105497944CDE9031011466846FFF731
:100A6000FBFC0FB000BD0000E5FFFFFF0A6802F8C5
:100A7000010B0A607047000000487047F0420020F8
:100A800030B5B0F10A024FEA900E71F100034EEA60
:100A9000817EB0EB0E0061EB91014FEA101E4EEA31
:100AA000017E10EB0E0041EB11114FEA102E4EEAC1
:100AB000016E10EB0E0041EB11214FEA104E4EEA91
:100AC000014E10EB0E0041EB1141401841F10001C5
:100AD0004FEAD00040EA41704FEAD10110EB8005A7
:100AE0004FEA810444EA907444EB01046D1944EB2D
:100AF0000404521BA3414FF0000348BF0A3200D543
:100B000030BD401C41F1000130BD00002DE9F04135
:100B10001F46044603260168072A01F4006004DB2F
:100B200008B116A505E016A503E008B115A500E07B
:100B300015A521F010002060A069C01EA0610FB1B2
:100B4000401EA0612046AFF300804FB1D4E90121DF
:100B500038469047206A401C2062C01C206206E094
:100B6000206AFAE7D4E9012115F8010B9047761EB7
:100B7000F8D22046AFF30080BDE8F0814E414E0030
:100B80006E616E00494E4600696E66002DE9F047C1
:100B9000814616468AB0354878440DC88DE80D0068
:100BA00032487844801C03AC0DC884E80D0041F63F
:100BB0009B300844372190FBF1F290FBF1F5A5F151
:100BC000800501FB12041B3C02D56442012000E0B9
:100BD0000020DFF898A080460027FA44AAF1BE0A58
:100BE0000EE0E0070AD03246684607EB47010123D2
:100BF0000AEB810100F046FB8DE8070064107F1CC2
:100C0000002CEED1194F7F44AE3F19E0E80715D014
:100C100007EB04100DF1180A90E80E008AE80E00A8
:100C2000C068F04201D1981908903246012306A904
:100C300003A800F027FB03AB83E807006D10641CDA
:100C4000002DE3D14FF0010332466946B8F1000FA1
:100C500003A802D000F001FB01E000F013FBC9E99A
:100C60000001C9F808200AB0BDE8F087145200005E
:100C700000487047D04200207546FFF7F9FFAE46A6
:100C800005006946534620F00700854618B020B598
:100C9000FFF744FBBDE820404FF000064FF000078F
:100CA0004FF000084FF0000B21F00701AC46ACE814
:100CB000C009ACE8C009ACE8C009ACE8C0098D4681
:100CC000704710B50446AFF300802046BDE81040E1
:100CD000FFF7B0BA4FF0013C50F8042B51F8043B39
:100CE0009A4221D1A2EB0C03934313EACC1317D100
:100CF00050F8042B51F8043B9A4215D1A2EB0C0397
:100D0000934313EACC130BD150F8042B51F8043B56
:100D10009A4209D1A2EB0C03934313EACC13DBD024
:100D20004FF00000704700BFD01A01BAB1FA81F14C
:100D300001F0180122FA01F0CB40C1F12001DBB231
:100D4000C0B2C01A2CFA01F3D11A914311EAC311AF
:100D5000E6D1704701491820ABBEFEE7260002002D
:100D600070475FEA400C08BF91F0000F4FEA8C23F8
:100D70004FEAC12243EA51514FEA1C5018BF00F517
:100D8000F0404FEA300018BF41F000415FEA6C5C70
:100D900000F02980BCF1FF3F08BF40F08040704761
:100DA000130C06BF12044FF0100C4FF0000C130E82
:100DB00004BF12020CF1080C130F04BF12010CF156
:100DC000040C930F04BF92000CF1020CD30F04BF6C
:100DD00052000CF1010C11464FF00002A0F11F006F
:100DE000A0EB0C00704711F0004F08BF704731F0C6
:100DF00000413FF4D5AF0B0C06BF09044FF0100CB7
:100E00004FF0000C0B0E04BF09020CF1080C0B0F85
:100E100004BF09010CF1040C8B0F04BF89000CF115
:100E2000020CCB0F04BF49000CF1010CCCF12003E4
:100E3000A0EB0C0022FA03F302FA0CF241EA0301E0
:100E400000F10100704720F07F4C80EA030023F09E
:100E50007F47ACEB070303F57C5300F0004003F140
:100E6000FF032DE980494FEA154B09B44FEA1443BB
:100E700025EA0B4E24EA03480FF2042606EB13275B
:100E800049083E785FEA320203FB0667C7F50007B0
:100E900007FB06F64FEA54374FEAD64606F102063C
:100EA00007FB066CCCF1005C4FEA1C472CEA074CB0
:100EB00007FB06F40CFB06F504EB15464FEA961605
:100EC00034BF00204FF000404FEAD13706FB07FC4B
:100ED0004FEA1C4C0CFB0BF7D21B03FB0CF761EB2E
:100EE00007010CFB0EF7B0EB074072EB17420CFB4F
:100EF00008F734BFA2EB0742B2EB074261EB1741A0
:100F00004FEA0C444FEA910706FB07FC4FEA1C4CE2
:100F10000CFB0BF7B0EBC74072EB573203FB0CF73F
:100F200034BFA2EBC742B2EBC74261EB57310CFBB7
:100F30000EF7B0EBC70072EB57720CFB08F734BF2B
:100F4000A2EBC702B2EBC70261EB5771039F4FEAF6
:100F5000816141EA921104EBCC044FEAD1374FEAA8
:100F6000826206FB07FC42EA90124FEA80604FEA79
:100F70001C4C0CFB0BF7D21B03FB0CF761EB0701BE
:100F80000CFB0EF7B0EB074072EB17420CFB08F7B7
:100F900034BFA2EB0742B2EB074261EB17414FEAC5
:100FA0008C554FEA910704EB9C2406FB07FC4FEAA3
:100FB0001C4C0CFB0BF7B0EBC74072EB573203FB3A
:100FC0000CF734BFA2EBC742B2EBC74261EB57311B
:100FD0000CFB0EF7B0EBC70072EB57720CFB08F777
:100FE00034BFA2EBC702B2EBC70261EB577115EB3E
:100FF0004C254FEA816141EA92114FEA82624FEA41
:10100000D13742EA901206FB07FC44F100044FEA94
:1010100080604FEA1C4C0CFB0BF7D21B03FB0CF758
:1010200061EB07010CFB0EF7B0EB074072EB1742C8
:101030000CFB08F734BFA2EB0742B2EB074261EBAF
:10104000174115EB1C154FEA813141EA92414FEAF5
:10105000823242EA90424FEA80304FEA0C7644F105
:10106000000448EA03434EEA0B484FF0000EB2EB8F
:10107000080C71EB030724BF624639464EEB0E0E97
:101080004FF0000B0018524149414BEB0B0BB2EBF8
:10109000080C71EB03077BF1000B24BF6246394655
:1010A0004EEB0E0E4FF0000B0018524149414BEB36
:1010B0000B0BB2EB080C71EB03077BF1000B24BFA9
:1010C000624639464EEB0E0E51EA020718BF46F053
:1010D000010616EB0E7655F1000254F1000103D51E
:1010E000BDE88901BDE80088BDE88901BDE8004888
:1010F000B619524141EB0101A3F101037047808011
:101100007F7E7D7C7B7A7978777676757473727161
:1011100071706F6E6E6D6C6C6B6A6A696868676619
:1011200066656464636362616160605F5F5E5E5DAB
:101130005D5C5C5B5B5A5A5959585857575656551F
:1011400055555454535352525251515050504F4F81
:101150004F4E4E4D4D4D4C4C4C4B4B4B4A4A4A49D1
:101160004949484848474747474646464545454414
:101170004444444343434342424242414141002BA1
:101180009C4630D477002BD01CB54FEA370703B408
:101190004FF010004FF01001BAF1000F06D0BCF173
:1011A000000FDCBF40F0080040F008014FF00000E5
:1011B0000FBCBDE810400BF1010BBBF1010F08BFE4
:1011C0005FEA170722BF12F1010211F101014FF08E
:1011D000004143F1000300F0004043EA0000704783
:1011E000F9D35708D0E746EA064613F1400F4FEA15
:1011F00016461FDD13F1200FDFBF16430A460021FC
:1012000020335B42BED0C3F1200746EA064602FA0D
:1012100007F74FEA164646EA0706C3F1200722FA07
:1012200003F201FA07F721FA03F14FF0000342EA53
:101230000702A7E746EA020646EA06464FEA1646CE
:1012400046EA0106BCBF46EA0646360C4FF00003EC
:101250004FF000024FF0000194E72DE9804C9A46D0
:10126000934670B491E8380007C831EA400C48BF93
:1012700034EA430C03D5FFF7E6FDFFF780FFF0BC2F
:10128000BDE8008C2DE9804C9A46934670B491E8F5
:10129000380007C810F0804F08BF13F0804F03D10B
:1012A00000F005F8FFF76BFFF0BCBDE8008C20F004
:1012B0007F4780EA030023F07F4C07EB0C03A3F584
:1012C0007C5300F00040A3F1FE0392F0000F00F009
:1012D000B38095F0000F00F077802DE901494FEAC7
:1012E00011404FEA144621EA004800FB06FC24EABC
:1012F000064708FB06F607FB08F800FB07F718EBA4
:1013000006484CEB164C4FEA124B18EB07484FEAD5
:1013100015464CEB174022EA0B4E0BFB06FC25EA68
:1013200006470EFB06F607FB0EFE0BFB07F71EEB50
:10133000064E4CEB164C4FF000061EEB074E4CEBE6
:10134000174B18EB0B0840F1000018EB0E0B58EB95
:10135000000840F100008F1A4FF000013CBFC94364
:10136000661B14BFB5EB040C00213CBFC943F61B40
:101370004FEA17444EEA8E0E27EA04454FEA1C470F
:1013800004FB07622CEA074C05FB07F70CFB05F68C
:1013900004FB0CFC16EB074642EB174216EB0C461F
:1013A00042EB1C421BEB060658EB0202414146EAA7
:1013B0009E0601D5BDE80189B619524141EB0101F4
:1013C000A3F10103BDE801894FEA14454FEA114733
:1013D00024EA054621EA074C05FB07F406FB07F75C
:1013E0000CFB06F105FB0CFC11EB074144EB174429
:1013F0004FEA124711EB0C4144EB1C4422EA074C24
:1014000005FB07F206FB07F70CFB06F605FB0CFCD9
:1014100016EB074642EB174216EB0C4642EB1C4517
:101420006A1854F1000148BF7047B619524141EBA8
:101430000101A3F10103704795F0000F37D04FEA87
:1014400011424FEA144721EA024624EA074C02FB04
:1014500007F106FB07F70CFB06F402FB0CFC14EB90
:10146000074441EB17414FEA154714EB0C4441EB9D
:101470001C4125EA074C02FB07F506FB07F70CFBAE
:1014800006F602FB0CFC16EB074645EB174516EB80
:101490000C4645EB1C42121951F1000148BF704740
:1014A000B619524141EB0101A3F1010370474FEA24
:1014B00014454FEA114724EA054621EA074C05FB8B
:1014C00007F106FB07F70CFB06F24FF0000605FBE1
:1014D0000CFC12EB074241EB174112EB0C4251EBB3
:1014E0001C4148BF7047921841EB0101A3F1010371
:1014F0007047000055494A6822F440324A604A6801
:1015000043681A434A600268526822F48072036892
:101510005A6002685368026943EA022203685A600B
:101520000268526822F0407203685A60026852688A
:1015300083681A4303685A600268926822F4006262
:1015400003689A6002689268C3681A4303689A60E5
:101550003F4B826A9A4218D00268926822F0706209
:1015600003689A6002689268836A1A4303689A6003
:101570000268926822F0405203689A60026892689A
:10158000C36A1A4303689A600BE00268926822F00B
:10159000706203689A600268926822F040520368A1
:1015A0009A600268926822F0020203689A600268F8
:1015B0009368027E43EA420203689A602022125C2A
:1015C000A2B10268526842F4006203685A6002687D
:1015D000526822F4604203685A6002685368426AA3
:1015E000521E43EA423203685A6005E002685268BC
:1015F00022F4006203685A600268D26A22F4700220
:101600000368DA620268D36A828B521E43EA02528E
:101610000368DA620268926822F4007203689A60D2
:101620000268936890F8302043EA422203689A6087
:101630000268926822F4806203689A600268936884
:10164000426943EA822203689A607047002301409E
:101650000100000F00BFFEE70246142901DB012054
:101660007047094850F82100401C074B43F82100FF
:10167000184650F82100904204DB002043F8210076
:101680000120EDE70020EBE790050020704710B542
:10169000012000F05DFD10BD10B5022000F058FDE6
:1016A00010BD10B5042000F053FD10BD10B508208A
:1016B00000F04EFD10BD72B600BFFEE700BF00F0A7
:1016C00079F8012003F088F8F9E7000010B500F080
:1016D00055FE074908600846006806490968401A2F
:1016E00005490860024800680249086010BD000012
:1016F0004C000020480000205000002010B5044697
:101700000548844201D102F09DFD204602F09AFF77
:10171000204602F05BFB10BD6402002010B52DEDE9
:10172000028B02F0D3F80F4903C903F052FE00EE1A
:10173000100ADFED0D0A80EE201A11EE104A204645
:1017400003F01CFE41EC180B53EC182B07A10948C1
:10175000FEF76EFE074A0121084602F0C1F9BDEC12
:10176000028B10BD1800002000247449252E32661B
:10177000000000001C01002010B502F0C7F802F0C4
:10178000ADFD02F0C7FAB6EE000A084880ED000A87
:101790009FED070A80ED010A9FED050A80ED020A20
:1017A000B3EE0F0A80ED050A10BD0000FC0000201A
:1017B0000000000010B52DED028BFE48D0E900308E
:1017C00060229A1A70F1000003DA012002F08EFA0A
:1017D00002E0002002F08AFAF74890F90000401C6D
:1017E000092814D2DFE800F0051468BCF1F0EFEE30
:1017F000ED00002002F07AFA00214FF47A70FFF732
:101800002BFF20B1ED4890F90000EB4908702EE362
:1018100002F012FD78B1EA48007801280BD0E948BF
:10182000D0E90010613140F10000E64AC2E9001041
:101830000120E3490870E2480078C8B1B2EE040A1A
:1018400002F098FA012002F051FA02F05DFAD94A4A
:1018500003C2D848D0E90010DA4B0CCB891A984162
:101860000DDB002002F042FA0020D549087006E0A6
:10187000002002F03BFA02F047FACE4A03C202F01F
:10188000D5FCC0B1CE480078A8B9002002F02EFAED
:101890004FF4FA7000F03CFCCA48D0E90010491E31
:1018A00060F10000C74AC2E90010FF20C249087079
:1018B0000120C2490870DAE202F0BEFC78B1C048EB
:1018C000007801280BD0BF48D0E90020613A60F1D0
:1018D0000000BC49C1E900200120B9490870B8489E
:1018E0000078C8B1BBEE040A02F044FA012002F00D
:1018F000FDF902F009FAAF4A03C2B248D0E900305C
:10190000083A06CA591A90410DDB002002F0EEF9A0
:101910000020AB49087006E0002002F0E7F902F071
:10192000F3F9A44A03C202F081FCC0B1A4480078D4
:10193000A8B9002002F0DAF94FF4FA7000F0E8FBE1
:10194000A048D0E90010491E60F100009D4AC2E99C
:101950000010FF209849087002209849087086E21C
:1019600002F06AFC78B19648007801280BD09548BF
:10197000D0E900200C3240F100009249C1E900207A
:1019800001208F4908708E480078F8B1B3EE040A40
:1019900002F0F0F9012002F0A9F902F0B5F9854A48
:1019A00003C28448D0E900308649D1E900219A1A5F
:1019B000884112DB002002F099F90020804908706C
:1019C0000BE0F0E185E109E178E023E0002002F09E
:1019D0008DF902F099F9774A03C202F027FCC0B1F1
:1019E00077480078A8B9002002F080F94FF4FA7027
:1019F00000F08EFB7348D0E90010491E60F1000032
:101A0000704AC2E90010FF206B49087003206B493F
:101A100008702CE202F010FC78B1694800780128C7
:101A20000BD06848D0E900200C3A60F1000065490D
:101A3000C1E9002001206249087061480078C8B1FE
:101A4000BBEE040A02F096F9012002F04FF902F011
:101A50005BF9584A03C25B48D0E90030083A06CA2D
:101A6000591A90410DDB002002F040F90020544942
:101A7000087006E0002002F039F902F045F94D4AFD
:101A800003C202F0D3FBC0B14D480078A8B90020D2
:101A900002F02CF94FF4FA7000F03AFB4948D0E913
:101AA0000010491E60F10000464AC2E90010FF2004
:101AB00041490870042041490870D8E102F0BCFB9C
:101AC00098B13F48007801280FD03E48D0E9001077
:101AD0004FF47073C91840F100003A4AC2E900108F
:101AE00001203749087002F0F3FD35480078E0B373
:101AF000304903C903F070FC08EE100A314903C9EC
:101B000003F06AFC08EE900A2F489FED301AF0EEC1
:101B1000480AB0EE680A02F049F8DFED2D0A30EE0F
:101B2000C00A2C4880ED000A90ED000A02F022F96C
:101B3000012002F0DBF802F0E7F81E4A03C21D485C
:101B4000D0E900101F4AD2E90032C91A904114DBD3
:101B5000002002F0CBF800201949087002F094FD33
:101B60001D4A03C202F086FD07E0FFE7002002F0F5
:101B7000BDF802F0C9F80F4A03C202F057FBC0B12A
:101B80000F480078A8B9002002F0B0F84FF4FA70BE
:101B900000F0BEFA0B48D0E90020521C40F10000D2
:101BA0000849C1E90020FF200349087005200349C6
:101BB00008705CE1000000200800002009000020FF
:101BC0000A00002010000020FC0000208FC2F53C1D
:101BD00000000442200000201800002002F02CFB2E
:101BE00098B1A548007801280FD0A448D0E900207A
:101BF0004FF47071511A60F10000A04AC2E9001060
:101C000001209D49087002F063FD9B480078D8B31D
:101C10009B4903C903F0E0FB08EE100A974903C98A
:101C200003F0DAFB08EE900A96481FED181AF0EE62
:101C3000480AB0EE680A01F0B9FFDFED930A30EE12
:101C4000C00A924880ED000A90ED000A02F092F876
:101C5000012002F04BF802F057F8894A03C2874886
:101C6000D0E90010864B0CCB891A984114DB002078
:101C700002F03CF800208049087002F005FD844A1B
:101C800003C202F0F7FC07E0FFE7002002F02EF8A5
:101C900002F03AF87A4A03C202F0C8FAC0B17648B4
:101CA0000078A8B9002002F021F84FF4FA7000F093
:101CB0002FFA7248D0E90020511C40F100006F4A11
:101CC000C2E90010FF2073490870062072490870AD
:101CD000CDE002F0B1FA98B16748007801280FD042
:101CE0006648D0E900304FF4F071591840F1000017
:101CF000624AC2E9001001205F49087002F0E8FC66
:101D00005D480078F0B35E4903C903F065FB08EE57
:101D1000100A5A4903C903F05FFB08EE900A5948BC
:101D20001FED561AF0EE480AB0EE680A01F03EFFC9
:101D30005FED590A30EEC00A544880ED000A90ED7C
:101D4000000A02F017F8012001F0D0FF01F0DCFFDB
:101D50004B4A03C24A48D0E90020484B0ACB511AEB
:101D600098411FDB4548D0E90010491C40F10000B4
:101D7000424AC2E900101046D0E900104FF4F07357
:101D8000C91A00E007E060F10000C2E90010072076
:101D90004049087006E0002001F0A8FF01F0B4FF00
:101DA000374A03C263E034480078D8B3344903C9E2
:101DB00003F012FB08EE100A304903C903F00CFBD4
:101DC00008EE900A2F481FED7F1AF0EE480AB0EE99
:101DD000680A01F0EBFEDFED2C0A30EEC00A2B485A
:101DE00080ED000A90ED000A01F0C4FF012001F02F
:101DF0007DFF01F089FF224A03C22048D0E900306C
:101E0000083A06CA591A904114DB002001F06EFF0F
:101E100000201949087002F037FC1D4A03C202F085
:101E200029FC07E0FFE7002001F060FF01F06CFFF4
:101E3000134A03C202F0FAF9C0B10F480078A8B9FA
:101E4000002001F053FF4FF4FA7000F061F90B48E5
:101E5000D0E90010491C40F10000084AC2E9001016
:101E6000FF200C49087000200B49087000BF00BF1C
:101E7000BDEC028B10BD00000A0000201000002005
:101E800000000020FC000020000004C22000002010
:101E900018000020080000200900002038B5024684
:101EA0000020009000BF92F83C00012801D10220E0
:101EB00038BD012082F83C0000BF0868092816D907
:101EC0001068C0680C780A3C04EB44050724AC4059
:101ED000A0431468E0600C780A3C04EB4404886872
:101EE000A0401468E46820431468E06013E01068C0
:101EF00000690C7804EB44050724AC40A043146847
:101F000020610C7804EB44048868A04014682469BC
:101F10002043146820614868072817D21068406B76
:101F20000C79641E04EB84051F24AC40A0431468A4
:101F30006063088880B20C79641E04EB8404A040BE
:101F40001468646B20431468606331E048680D28AE
:101F500017D21068006B0C79E41F04EB84051F2472
:101F6000AC40A04314682063088880B20C79E41F59
:101F700004EB8404A0401468246B2043146820639D
:101F800016E01068C06A0C790D3C04EB84051F2430
:101F9000AC40A0431468E062088880B20C790D3C24
:101FA00004EB8404A0401468E46A20431468E062EF
:101FB000194B1A4C1068A04206D10868122803D1A8
:101FC000586840F480005860144C1068A0421CD13E
:101FD0000868102802D00868112816D1586840F403
:101FE00000005860086810280FD10D4800680D4C9B
:101FF000B0FBF4F000EB80004000009002E000989D
:10200000401E009000980028F9D100BF002082F8FF
:102010003C0000BF00BF4BE700230140002001400F
:102020003C00002040420F0070B5044600250CB96A
:10203000012070BD1549A06A884200D000BF206C05
:1020400030B9204600F024F80020606484F83C0099
:10205000206C00F0100088B9206C20F4885040F00B
:10206000020020642046FFF745FA00206064206CDF
:1020700020F0020040F00100206400E0012500BFD4
:10208000002084F83C0000BF2846D2E70100000F82
:1020900010B586B00446142101A8FEF796FA194936
:1020A000206888422BD100BF0020009016480068AD
:1020B00040F48070144908600846006800F480709D
:1020C000009000BF00BF00BF002000900E481438F1
:1020D000006840F004000C491439086008460068A4
:1020E00000F00400009000BF00BF01200190032019
:1020F00002900020039001A9044800F037F806B0D0
:1021000010BD000000200140443802400008024099
:1021100070B5044600F032F906462546681C10B139
:1021200004480078054400BF00F028F9801BA8424D
:10213000FAD370BD3800002010B50446082C02D137
:10214000FFF7C4FA02E0012C00D000BF10BD000070
:1021500010B5044604480068204020B102480460DD
:102160002046FFF7E9FF10BD143C0140F8B50246D8
:102170000B460025002400200021D6E0012606FAA7
:1021800001F51E6806EA0504AC4274D11E7906F01A
:102190000306012E04D01E7906F00306022E13D189
:1021A00090684F000326BE40B0434F00DE68BE403B
:1021B00030439060506801268E40B0431E79C6F3CC
:1021C00000168E40304350601E7906F00306032E41
:1021D00009D0D0684F000326BE40B0434F009E6830
:1021E000BE403043D0601E7906F00306022E13D1A4
:1021F000CF0802F1200656F827004E07F70E0F26EB
:10220000BE40B0434F07FF0E1E69BE403043CF08AB
:1022100002F1200646F8270010684F000326BE4052
:10222000B0431E7906F003064F00BE4030431060F5
:102230005E6806F44036002E76D000BF0026009679
:102240003C4E366846F480463A4F3E603E4636681D
:1022500006F48046009600BF00BF374E8F0856F840
:1022600027008E07370F0F26BE40B043334EB242D1
:1022700002D1002624E057E0314EB24201D10126BE
:102280001EE0304EB24201D1022619E02E4EB2427B
:1022900001D1032614E02D4EB24201D104260FE0F5
:1022A0002B4EB24201D105260AE02A4EB24201D19C
:1022B000062605E0284EB24201D1072600E0082696
:1022C0008F073F0FBE4030431B4E8F0846F8270054
:1022D000224E3068A0435E6806F4801606B12043A3
:1022E0001E4E3060361D3068A0435E6806F400164E
:1022F00006B12043194E361D3060184E361F306827
:10230000A0435E6806F4003606B12043134E361F24
:102310003060361F3068A0435E6806F4803606B130
:1023200020430E4E083E3060491C1029FFF426AFB2
:10233000F8BD000044380240083801400000024067
:102340000004024000080240000C0240001002405D
:102350000014024000180240001C0240083C0140EA
:10236000024613690B400BB1012000E000207047CA
:102370000AB1816101E00B04836170470148006884
:1023800070470000300000200348006803490978C6
:1023900008440149086070473000002038000020E0
:1023A00010B50D48006840F400700B4908600846FD
:1023B000006840F4806008600846006840F480705F
:1023C0000860032000F0DCF80F2000F007F800F0B0
:1023D0005FF8002010BD0000003C02402DE9F041F4
:1023E00088B004460027B84600BF0020019023486B
:1023F000006840F02000214908600846006800F0AD
:102400002000019000BF00BF02A903A800F08EF9D0
:10241000069F1FB900F0B2F9054602E000F0AEF9E0
:1024200045001748B5FBF0F0A0F101081548164922
:10243000086040F2E7311448C160C0F80480002110
:1024400001618160816100F0ABFC064696B90E48DF
:1024500000F072FD06466EB9372000F043F8102CEC
:1024600007D200222146372000F04CF807480460CC
:1024700000E00126304608B0BDE8F0814038024057
:1024800040420F00001400404805002034000020A6
:1024900008B500BF002000901148006840F480405B
:1024A0000F4908600846006800F48040009000BFB3
:1024B00000BF00BF00200090081F006840F080505F
:1024C000091F08600846006800F08050009000BFB7
:1024D00000BF00220F21901E00F014F808BD00007C
:1024E0004438024001460846002809DB00F01F037B
:1024F00001229A4043099B0003F1E023C3F8002125
:1025000000BF70472DE9F05F80460D461646002754
:1025100002F002F9074639462A46334601F0070021
:10252000C0F1070ABAF1040F02D94FF0040A01E022
:10253000C0F1070AD14600F1040ABAF1070F02D22E
:102540004FF0000A01E0A0F1030AD4464FF0010A5F
:102550000AFA09FAAAF1010A0AEA020A0AFA0CFAC4
:102560004FF0010B0BFA0CFBABF1010B0BEA030B69
:102570004AEA0B042146404602F0D6F8BDE8F09F37
:1025800000BF00F00702064B19684FF6FF03194021
:10259000044B0B4343EA0221014B196000BF704713
:1025A0000CED00E00000FA0570B504460D460CB9CC
:1025B000012070BD5848006800F00700A84209D209
:1025C00055490D700846006800F00700A84201D088
:1025D0000120EEE7207800F0020002281DD12078CB
:1025E00000F00400042805D14C48006840F4E05095
:1025F0004A490860207800F00800082805D14748BB
:10260000006840F46040454908604448006820F094
:10261000F000A168084341490860207800F00100FB
:10262000A8B36068012807D13C4808380068C0F3A7
:102630004040B8B90120BCE76068022802D0606859
:10264000032807D1354808380068C0F3406048B90E
:102650000120AEE7314808380068C0F3400008B9EF
:102660000120A6E72D48006820F0030061680843B8
:102670002A490860FFF782FE064609E0FFF77EFE62
:10268000801B41F28831884202D9032091E707E09C
:102690002248006800F00C006168B0EB810FEDD1BA
:1026A0001D48006800F00700A84209D91A490D70BA
:1026B0000846006800F00700A84201D0012078E732
:1026C000207800F00400042807D11448006820F4A2
:1026D000E050E168084311490860207800F00800E4
:1026E000082808D10D48006820F46040216940EABC
:1026F000C1000A49086000F051F808490968C1F3AF
:102700000311074A515CC840064908600648006842
:10271000FFF764FE00204CE7003C0240083802400E
:10272000045500083C000020340000200F22026005
:102730000D4A126802F0030242600B4A126802F06E
:10274000F0028260084A126802F4E052C260064A4F
:10275000126802F46042D2080261044A126802F070
:1027600007020A607047000008380240003C02403F
:1027700001480068704700003C00002000B5FFF7EA
:10278000F7FF04490968C1F38221034A515CC8403C
:1027900000BD000008380240145500082DE9F0473C
:1027A000002400250026A1462548006800F00C0002
:1027B00020B1042805D008283AD105E0DFF884903C
:1027C00039E0DFF8849036E01D48001F006800F013
:1027D0003F041B48001F006800F4800078B11A48CD
:1027E0001749091F0968C1F38811A0FB0170014650
:1027F000224600233846FDF7A3FD05460EE01148AA
:102800000F49091F0968C1F38811A0FB0170014637
:10281000224600233846FDF793FD05460848001F71
:102820000068C0F30140401C4600B5FBF6F902E029
:10283000DFF8109000BF00BF4846BDE8F0870000F9
:10284000083802400024F40000127A00F8B504466B
:102850000CB90120F8BD207800F00100002874D0E8
:10286000F948006800F00C0004280DD0F648006814
:1028700000F00C00082813D1F348001F006800F492
:102880008000B0F5800F0BD1EF4808380068C0F326
:102890004040002859D06068002856D10120D9E76F
:1028A00000BF6068B0F5803F08D1E748083800688D
:1028B00040F48030E449083908601EE06068B0F5F3
:1028C000A02F0DD1E0480838006840F48020DE4990
:1028D000083908600846006840F4803008600CE061
:1028E000D9480838006820F48030D7490839086092
:1028F0000846006820F48020086000BF606890B13E
:10290000FFF73CFD054606E0FFF738FD401B642855
:1029100001D903209EE7CC4808380068C0F3404046
:102920000028F1D011E0FFF729FD054606E0FFF78A
:1029300025FD401B642801D903208BE7C2480838D5
:102940000068C0F340400028F1D1207800F0020078
:1029500002285FD1BC48006800F00C0058B1BA48AA
:10296000006800F00C0008281CD1B748001F006860
:1029700000F48000B0B9B44808380068C0F34000E3
:1029800020B1E068012801D0012063E7AE48083893
:10299000006820F0F800216940EAC100AA4908391E
:1029A000086037E0E06800B30120A8490860FFF73D
:1029B000E5FC054606E0FFF7E1FC401B022801D9D3
:1029C000032047E7A04808380068C0F3400000280B
:1029D000F1D09D480838006820F0F800216940EAED
:1029E000C10099490839086014E00020974908603F
:1029F000FFF7C4FC054606E0FFF7C0FC401B0228B9
:102A000001D9032026E7904808380068C0F3400049
:102A10000028F1D1207800F0080008282CD1606946
:102A2000A8B101208A490860FFF7A8FC054606E026
:102A3000FFF7A4FC401B022801D903200AE78248C3
:102A40006C300068C0F340000028F1D014E0002092
:102A50007F490860FFF792FC054606E0FFF78EFC11
:102A6000401B022801D90320F4E677486C30006847
:102A7000C0F340000028F1D1207800F004000428C1
:102A800070D1002770483830006800F0805090B94D
:102A900000BF002000906C483830006840F0805043
:102AA0006949383108600846006800F0805000909D
:102AB00000BF00BF01276748006800F48070B0B90C
:102AC0006448006840F4807062490860FFF756FC73
:102AD000054606E0FFF752FC401B022801D90320FF
:102AE000B8E65C48006800F480700028F2D000BFAF
:102AF000A068012808D154486830006840F00100FF
:102B00005149683108601DE0A06805280DD14E4884
:102B10006830006840F004004B496831086008469E
:102B2000006840F0010008600CE047486830006829
:102B300020F001004449683108600846006820F030
:102B40000400086000BFA068A8B1FFF717FC0546A5
:102B500009E0FFF713FC401B41F28831884202D99B
:102B6000032077E626E0384868300068C0F340006C
:102B70000028EED013E0FFF701FC054608E0FFF760
:102B8000FDFB401B41F28831884201D9032061E6F8
:102B90002D4868300068C0F340000028EFD1012FB5
:102BA00007D129483830006820F080502649383154
:102BB000086000BFA069002845D02348006800F0E5
:102BC0000C0008285DD0A069022845D100201F49CB
:102BD0000866FFF7D3FB054606E0FFF7CFFB401B77
:102BE000022801D9032035E6174808380068C0F3E9
:102BF00040600028F1D1D4E907010843616A40EA46
:102C000081110122A06AC2EB500041EA00412C2050
:102C1000005D41EA00600C49091F086001200B4972
:102C20000866FFF7ABFB054606E0FFF7A7FB401B76
:102C3000022801D903200DE6034808380068C0F3D4
:102C400040600028F1D049E00838024000004742C7
:102C5000800E474200700040002021490866FFF7BF
:102C60008DFB054606E0FFF789FB401B022801D9D2
:102C70000320EFE51B480068C0F340600028F2D154
:102C80002CE0A069012800D1E4E51648001D066883
:102C9000A069012820D006F48001E06981421BD19F
:102CA00006F03F01206A814216D147F6C0703040DD
:102CB000616AB0EB811F0FD106F440310122A06A96
:102CC000C2EB5000B1EB004F06D106F070612C2032
:102CD000005DB1EB006F01D00120BBE50020B9E53C
:102CE00000004742003802407047704730B5024646
:102CF0000B4600BF92F83C00012801D1022030BDF4
:102D0000012082F83C0000BF022082F83D001068DC
:102D100044681068816824F07004186804431068DF
:102D20004460184D1068A8421BD01068B0F1804F65
:102D300017D0154D1068A84213D0144D1068A84242
:102D40000FD0134D1068A8420BD0124D1068A84246
:102D500007D0114D1068A84203D0104D1068A8424A
:102D600005D121F08001586801431068816001207D
:102D700082F83D0000BF002082F83C0000BF00BF89
:102D8000BDE70000000001400004004000080040D2
:102D9000000C0040000401400040014000180040C9
:102DA00010B504460CB9012010BD94F83D0028B9B7
:102DB000002084F83C00204600F026F8022084F829
:102DC0003D00211D206801F0B9FA012084F8460079
:102DD00000BF84F83E0001213F20015540200155ED
:102DE0004120015500BF00BF012084F8420043206C
:102DF0000155442001554520015500BF012084F8AC
:102E00003D000020D0E7000038B504464449206862
:102E100088420FD100BF002000904248006840F077
:102E20000200404908600846006800F00200009077
:102E300000BF74E03C492068884218D100BF0020E0
:102E400000903848006840F00400364908600846A1
:102E5000006800F00400009000BF00BF00220521C0
:102E60001E20FFF74FFB1E20FFF73CFB57E02F49CA
:102E7000206888421AD100BF002000902948001D18
:102E8000006840F480202749091D08600846006852
:102E900000F48020009000BF00BF002205211A200E
:102EA000FFF730FB1A20FFF71DFB38E020492068B0
:102EB000884218D100BF002000901A48006840F0F6
:102EC0008000184908600846006800F08000009003
:102ED00000BF00BF002205212C20FFF713FB2C2090
:102EE000FFF700FB1BE013492068884217D100BFA1
:102EF000002000900B48006840F480700949086089
:102F00000846006800F48070009000BF00BF0022F7
:102F100005212D20FFF7F6FA2D20FFF7E3FA38BD43
:102F200000040040403802400008004000480140D2
:102F3000001C004000200040014691F83D0001289F
:102F400001D001207047022081F83D000868C06868
:102F500040F001000B68D8601A4B086898421BD0FB
:102F60000868B0F1804F17D0174B0868984213D00B
:102F7000164B086898420FD0154B086898420BD042
:102F8000144B0868984207D0134B0868984203D046
:102F9000124B086898420CD10868806800F007025C
:102FA000062A0CD00868006840F001000B68186021
:102FB00005E00868006840F001000B681860002018
:102FC000C0E700000000014000040040000800408D
:102FD000000C004000040140004001400018004087
:102FE00001460868C06820F001000A68D06000BF90
:102FF0000868006A41F21112104050B90868006A6E
:103000009210104028B90868006820F001000A6892
:10301000106000BF012081F83D00002070472DE9BD
:10302000F04104460D46002700BF94F83C000128FB
:1030300002D10220BDE8F081012084F83C0000BFED
:10304000022084F83D002068866826F0770626F482
:103050007F46206886602868502833D00CDC202802
:1030600050D004DC00284BD0102851D149E0302842
:1030700049D040284CD139E060282DD0702807D0A5
:10308000B0F5805F03D0B0F5005F41D10DE041E0C5
:10309000D5E902136A68206801F0BCF920688668E7
:1030A00046F077062068866034E0D5E902136A6846
:1030B000206801F0AFF92068806840F48040216802
:1030C000886027E0EA686968206801F093FA502177
:1030D000206801F0AAF91DE0EA686968206801F03B
:1030E0009CFA6021206801F0A0F913E0EA686968A1
:1030F000206801F07FFA4021206801F096F909E08C
:1031000000BF00BF00BF2968206801F08EF901E010
:10311000012700BF00BF012084F83D0000BF002050
:1031200084F83C0000BF384684E7704710B5044679
:1031300020680069C0F34000D8B12068C068C0F3BF
:103140004000B0B16FF002002168086101202077D3
:103150002068806900F0030018B12046FFF7E5FF02
:1031600005E0204600F0EAF8204600F09EF9002035
:10317000207720680069C0F38000D8B12068C0685B
:10318000C0F38000B0B16FF0040021680861022034
:1031900020772068806900F4407018B12046FFF75E
:1031A000C4FF05E0204600F0C9F8204600F07DF994
:1031B0000020207720680069C0F3C000D8B12068E3
:1031C000C068C0F3C000B0B16FF0080021680861AA
:1031D000042020772068C06900F0030018B1204661
:1031E000FFF7A3FF05E0204600F0A8F8204600F016
:1031F0005CF90020207720680069C0F30010D8B186
:103200002068C068C0F30010B0B16FF010002168F2
:103210000861082020772068C06900F4407018B168
:103220002046FFF782FF05E0204600F087F82046A1
:1032300000F03BF9002020772068006900F00100D1
:1032400058B12068C06800F0010030B16FF0010093
:1032500021680861204600F029F920680069C0F360
:10326000C01058B12068C068C0F3C01030B16FF012
:103270008000216808612046FFF736FD206800695C
:10328000C0F3801058B12068C068C0F3801030B11E
:103290006FF0400021680861204600F019F92068AD
:1032A0000069C0F3401058B12068C068C0F34010F6
:1032B00030B16FF02000216808612046FFF715FD4E
:1032C00010BD000010B586B00446142101A8FDF71A
:1032D0007CF917492068884228D100BF002000905F
:1032E0001448006840F0020012490860084600686F
:1032F00000F00200009000BF00BF012001900220FA
:1033000002900390032004900220059001A90A482E
:10331000FEF72CFF02200190029000200390049001
:103320000220059001A90448FEF720FF06B010BD59
:1033300000040040303802400004024070472DE98C
:10334000F04104460D461646002700BF94F83C00A5
:10335000012802D10220BDE8F081012084F83C0060
:1033600000BF36B1042E1BD0082E31D00C2E5ED1FA
:1033700045E02946206801F061F82068806940F046
:103380000800216888612068806920F004002168B5
:10339000886120688069296908432168886148E05C
:1033A0002946206801F082F82068806940F40060B6
:1033B000216888612068806920F4806021688861C4
:1033C00020688069296940EA01202168886130E02D
:1033D0002946206801F0A8F82068C06940F008007C
:1033E0002168C8612068C06920F004002168C861B4
:1033F0002068C069296908432168C86119E0294625
:10340000206801F0CDF82068C06940F400602168B0
:10341000C8612068C06920F480602168C8612068A4
:10342000C069296940EA01202168C86101E00127DB
:1034300000BF00BF00BF002084F83C0000BF38463A
:1034400089E710B504460CB9012010BD94F83D0081
:1034500028B9002084F83C00204600F025F802201E
:1034600084F83D00211D206800F068FF012084F8E9
:10347000460000BF84F83E0001213F200155402056
:1034800001554120015500BF00BF012084F84200D2
:1034900043200155442001554520015500BF01201E
:1034A00084F83D000020D0E77047704710B504460F
:1034B0002046FEF723F905492068884201D1FEF72E
:1034C00063FF204601F0BEF810BD0000001400406C
:1034D000704700BFFEE700001FB50020009001907C
:1034E000029003901548164908604FF480304860F8
:1034F0000021134881600161017680F82010C162CB
:10350000104981620021C1600121C161002180F860
:10351000301001214161FEF787FD08B1FEF7CBF8BD
:103520000A20009001200190002002906946044882
:10353000FEF7B4FC08B1FEF7BEF81FBD0020014045
:10354000440100200100000F00B587B0142102A83B
:10355000FDF73BF800BF002001906348006840F091
:103560008000614908600846006800F08000019012
:1035700000BF00BF00BF002001900846006840F077
:10358000040008600846006800F00400019000BFD5
:1035900000BF00BF002001900846006840F0010015
:1035A00008600846006800F00100019000BF00BFFD
:1035B00000BF002001900846006840F0020008604B
:1035C0000846006800F00200019000BF00BF00BF85
:1035D000002001900846006840F04000086008465E
:1035E000006800F04000019000BF00BF00BF002055
:1035F00001900846006840F008000860084600682E
:1036000000F00800019000BF00BF00224FF44061AD
:103610003648FEF7ADFE00224FF470613448FEF7E5
:10362000A7FE0022F8213348FEF7A2FE0C200290EC
:103630004FF4881003900020049002A92E48FEF752
:1036400095FD032002904FF4881003900020049011
:1036500002A92848FEF78AFD4FF44060029001203D
:10366000039000200490059002A92048FEF77EFDFB
:103670004FF470600290012003900020049003201A
:10368000059002A91A48FEF771FDF820029001206A
:103690000390002004900320059002A91548FEF72E
:1036A00065FD002205210620FEF72CFF0620FEF70F
:1036B00019FF002205210720FEF724FF0720FEF74F
:1036C00011FF002205210820FEF71CFF0820FEF74D
:1036D00009FF002205210920FEF714FF0920FEF74B
:1036E00001FF07B000BD0000303802400004024076
:1036F000000C0240001802400000024010B50A48C9
:103700000A490860A72048600021084881604FF6F8
:10371000FF71C160002101618161FFF741FB08B1C8
:10372000FDF7C9FF10BD0000004801401C02002049
:1037300010B50A480A49086044F29F104860002109
:10374000074881604FF4FA71C16000210161816115
:10375000FFF726FB08B1FDF7AEFF10BD001C0040CF
:103760006402002010B50A480A49086044F29F101C
:10377000486000210748816042F21071C160002159
:1037800001618161FFF70CFB08B1FDF794FF10BDEB
:1037900000200040AC02002000B58DB00020099050
:1037A0000A900B900C90079008901C216846FCF73B
:1037B0000CFF26482649086044F29F10486000210B
:1037C00023488160FF21C160002101618021816166
:1037D000FFF7E6FA08B1FDF76EFF4FF4805009904D
:1037E00009A91B48FFF71BFC08B1FDF764FF184847
:1037F000FFF727FE08B1FDF75EFF00200790089055
:1038000007A91348FFF772FA08B1FDF754FF6020CB
:103810000090C82001900020029004900822694680
:103820000B48FFF78CFD08B1FDF745FF0020019024
:103830000C2269460648FFF782FD08B1FDF73BFF01
:103840000348FFF73FFD0DB000BD0000000400403D
:103850008C01002000B587B00020039004900590F3
:1038600006900190029015481549086044F29F1097
:1038700048600021124881604FF6FF71C16000214D
:1038800001618161FFF78CFA08B1FDF714FF4FF475
:103890008050039003A90A48FFF7C1FB08B1FDF768
:1038A0000AFF00200190029001A90548FFF71EFAC7
:1038B00008B1FDF700FF07B000BD000000080040A0
:1038C000D401002000BFFEE700BFFEE770B5002472
:1038D00019E004F1B001C8B2002100F01DF9002187
:1038E000022000F019F90021102000F015F9002540
:1038F00005E00121002000F00FF9681CC5B2802D01
:10390000F7DB601CC4B2082CE3DB70BD10B50122EC
:1039100020214748FEF72CFD6420FEF7F9FB00222A
:1039200020214348FEF724FDC820FEF7F1FB0122C9
:1039300020213F48FEF71CFD0021AE2000F0ECF8EE
:103940000021022000F0E8F80021102000F0E4F847
:103950000021402000F0E0F80021812000F0DCF898
:103960000021FF2000F0D8F80021A12000F0D4F8B9
:103970000021C82000F0D0F80021A62000F0CCF8EB
:103980000021A82000F0C8F800213F2000F0C4F872
:103990000021D32000F0C0F80021084600F0BCF858
:1039A0000021D52000F0B8F80021802000F0B4F804
:1039B0000021D92000F0B0F80021F12000F0ACF88F
:1039C0000021DA2000F0A8F80021122000F0A4F86D
:1039D0000021DB2000F0A0F80021402000F09CF83E
:1039E0000021202000F098F80021022000F094F837
:1039F00000218D2000F090F80021142000F08CF8B8
:103A00000021A42000F088F80021A62000F084F80E
:103A10000021AF2000F080F80021AF2000F07CF8FA
:103A2000FFF754FF0021084600F004F810BD000025
:103A30000018024070B505460C462046E11704EB1D
:103A40005171C1F3C70404F1B001C8B2002100F004
:103A500063F8A91CC1F3031141F01000002100F02C
:103A60005BF8A91C01F00F00002100F055F870BDB3
:103A70002DE9F04107460E46904600250024A8F1A6
:103A80002000C5B27F2F02DD0027B01CC6B2314630
:103A90003846FFF7CFFF002408E004EB05110F4A7A
:103AA000505C012100F038F8601CC4B2082CF4DB33
:103AB00006F10800C1B23846FFF7BCFF002409E058
:103AC00004EB05110831054A505C012100F024F88F
:103AD000601CC4B2082CF3DBBDE8F0814457000839
:103AE0002DE9F04104460F46154600260EE0AA5D7A
:103AF00039462046FFF7BCFF04F10800C4B2782C19
:103B000002DD0024B81CC7B2701CC6B2A85D002834
:103B1000EDD1BDE8F081000070B504460E462EB12F
:103B2000012210211C48FEF723FC04E00022102192
:103B30001948FEF71DFC002208211748FEF718FC63
:103B400000251BE0002280211348FEF711FC04F041
:103B5000800028B1012240210F48FEF709FC04E053
:103B6000002240210C48FEF703FC012280210A4874
:103B7000FEF7FEFB6006040E681CC5B2082DE1DBF3
:103B8000012208210448FEF7F3FB0122102102481C
:103B9000FEF7EEFB70BD00000018024000BFFDF70D
:103BA000BDFD642000F018FEF9E7000000B5B0EE9E
:103BB000404AF0EE604AF0EE413A01460846F0EE27
:103BC000640AB0EE440A00F031F8174880ED000AAC
:103BD00091ED040AD0ED000A30EEC00AB0EEC00A42
:103BE000B4EEE30AF1EE10FA16DB91ED040AD0ED23
:103BF000000AB4EEE00AF1EE10FA06D891ED040ADC
:103C000030EE230A80ED000A06E091ED040A30EE62
:103C1000630A054880ED000A034890ED000A81ED33
:103C2000040A90ED000A00BD44000020B0EE401AE6
:103C3000F0EE601A71EE612AF0EE620AD0ED072A0A
:103C400072EEA02AC0ED072AD0ED032A70EEE22A18
:103C5000B0EE622AD0ED072A90ED063AF4EEC32AC0
:103C6000F1EE10FA03DBD0ED062AC0ED072AD0ED05
:103C7000072A90ED063AB1EE433AF4EEC32AF1EE8C
:103C800010FA05D8D0ED062AF1EE622AC0ED072A17
:103C9000D0ED012A90ED073A62EE832A90ED003ACA
:103CA00043EE202A90ED023AB0EE620A03EE020AD9
:103CB000D0ED052AF4EEC02AF1EE10FA03D8D0EDCB
:103CC000052AB0EE620AD0ED052AF1EE622AF4EE82
:103CD000C02AF1EE10FA05DBD0ED052AF1EE622ADA
:103CE000B0EE620AC0ED030A7047000010B504464A
:103CF0001CB10448FFF720F902E00248FFF770F911
:103D000010BD0000D4010020014903C97047000024
:103D10008000002010B51448FFF762F90020134915
:103D2000087000224FF480711148FEF721FB002239
:103D30004FF400710E48FEF71BFB00224FF4806128
:103D40000B48FEF715FB00224FF400610848FEF710
:103D50000FFB00BF4FF4FA7003490968C8620146BF
:103D60000148C16000BF10BDD401002078000020D0
:103D7000000C0240B5EEC00AF1EE10FA03DB0120A0
:103D80000E49087002E0FF200C4908700B4890F9BA
:103D9000000000EE900AF8EEE00A60EE800A9FED67
:103DA000081A60EE810A9FED071AC0EE811AFCEE38
:103DB000E10A0548C0ED000A704700008C000020B1
:103DC00000007A440000C8429000002010B504466C
:103DD000D14884427ED1D1480078082839D2DFE822
:103DE00000F004396492BDE9FEFD01229102CC4845
:103DF000FEF7BEFA01221102CA48FEF7B9FA002204
:103E00004FF40071C748FEF7B3FA00224FF4806107
:103E1000C448FEF7ADFA00224FF40061C148FEF736
:103E2000A7FAC1480078012802D1BC49087007E010
:103E30000720BA490870BD480068401EBB490860A9
:103E4000BA480068B549097801EBC000C117B84A03
:103E500003C23FE101229102B148FEF789FA012233
:103E60001102B048FEF784FA01225102AD48FEF774
:103E70007FFA00224FF48061AA48FEF779FA002207
:103E80004FF40061A748FEF773FAA4480078A649EA
:103E900009780844A1490870A4480068097801EB32
:103EA000C000C117A24A03C214E1012291029C483A
:103EB000FEF75EFA00224FF480719A48FEF758FA36
:103EC000012251029748FEF753FA00224FF4806115
:103ED000944800E01FE1FEF74BFA00224FF4006126
:103EE0009048FEF745FA8D4800788F4909780844D4
:103EF0008A4908708D480068097801EBC000C11735
:103F00008B4A03C2E6E0012291028548FEF730FAAF
:103F100000224FF480718348FEF72AFA01225102F1
:103F20008048FEF725FA012291027E48FEF720FA2A
:103F300000224FF400617B48FEF71AFA77480078B8
:103F40007949097808447549087078480068097803
:103F500001EBC000C117764A03C2BBE00122910207
:103F60006F48FEF705FA00224FF480716D48FEF7A6
:103F7000FFF900224FF400716A48FEF7F9F90122B7
:103F800091026848FEF7F4F900224FF40061654899
:103F9000FEF7EEF9614800786349097808445F4903
:103FA000087062480068097801EBC000C117604AD8
:103FB00003C28FE0012291025948FEF7D9F900228D
:103FC0004FF480715748FEF7D3F900224FF4007187
:103FD0005448FEF7CDF90122910201E044E017E0D8
:103FE0005048FEF7C5F90122D1024E48FEF7C0F94C
:103FF0004A4800784C4909780844484908704B48B9
:104000000068097801EBC000C117494A03C261E0AA
:10401000012291024248FEF7ABF900224FF4807171
:104020004048FEF7A5F900224FF400713D48FEF725
:104030009FF900224FF480613A48FEF799F9012276
:10404000D1023848FEF794F93448007836490978A7
:1040500008443249087035480068097801EBC0000F
:10406000C117334A03C235E000224FF480612C4867
:10407000FEF77EF9012211022A48FEF779F90022A3
:104080004FF400712748FEF773F900224FF4806166
:104090002448FEF76DF90122D1022248FEF768F9A3
:1040A00021480078012808D100201C4908701F48C9
:1040B0000068401C1D49086002E00620174908708E
:1040C0001A4800681549097801EBC000C117184A61
:1040D00003C200BF00BF17480068B0F5803F0BD394
:1040E0004FF4FA701349086000BF0B490968C862B1
:1040F00001460948C1600EE00E48006805280AD94B
:1041000000BF0C48006804490968C8620948016892
:104110000148C16000BF10BDD4010020780000201C
:1041200000040240000C02408C00002088000020A7
:10413000800000209000002010B5502080F31188EE
:10414000BFF34F8FBFF36F8F01F02CF818B1044904
:104150004FF080500860002080F3118810BD0000EF
:1041600004ED00E000B593B0302107A8FCF72DFA6C
:10417000142102A8FCF729FA00BF0020019024486E
:10418000006840F08050224908600846006800F04E
:104190008050019000BF00BF00BF002001901D486B
:1041A000006840F480401B4908600846006800F43D
:1041B0008040019000BF00BF0120079000040890DC
:1041C00002200D9041050E9104210F91A82110911C
:1041D000022111910421129107A8FEF737FB08B1C3
:1041E000FDF769FA0F20029002200390002004904E
:1041F0004FF4A05005904FF480500690052102A87E
:10420000FEF7D2F908B1FDF756FA13B000BD000071
:1042100040380240007000400348006840F47000DD
:10422000014908607047000088ED00E0014800780F
:10423000704700005C0000200148007870470000D3
:104240006800002010B501211D48FEF789F870B9FB
:104250001C48006838B91C480068401C1A490860AE
:1042600001201A49086001201649086009E0154834
:104270000068012802D1002014490860002011497B
:10428000086002210E48FEF76BF870B9104800680C
:1042900038B910480068401C0E49086001200E49DA
:1042A000086001200A49086009E0094800680128FF
:1042B00002D100200849086000200549086010BDAF
:1042C0000018024058000020540000205C0000202C
:1042D00064000020600000206800002010B5024843
:1042E000FEF72AFE10BD00006402002010B502484F
:1042F000FEF71CFF10BD00001C02002010B5024894
:10430000FEF714FF10BD0000D401002010B50248D4
:10431000FEF70CFF10BD00004805002010B5024854
:10432000FEF704FF10BD0000AC02002010B50248EB
:10433000FEF7FCFE10BD00006402002010B502680C
:10434000294B98420ED0B0F1804F0BD0274B9842AA
:1043500008D0274B984205D0264B984202D0264BD6
:10436000984203D122F070024B681A431E4B9842C8
:1043700020D0B0F1804F1DD01C4B98421AD01C4B5E
:10438000984217D01B4B984214D01B4B984211D027
:104390001A4B98420ED01A4B98420BD0194B9842A8
:1043A00008D0194B984205D0184B984202D0184BB0
:1043B000984203D122F44072CB681A4322F0800362
:1043C0004C6943EA040202608B68C3620B68836233
:1043D000054B984202D0084B984201D10B69036308
:1043E0000123436110BD00000000014000040040B3
:1043F00000080040000C0040000401400040014063
:10440000004401400048014000180040001C0040EA
:104410000020004030B50C46816821F47F4142EA1B
:10442000032525432943816030BD0A46816821F078
:10443000700142F0070319438160704730B5056A87
:1044400025F001050562026A4368846924F070045E
:1044500024F003040D682C4322F002028D682A43E5
:10446000104DA84200D103E00F4DA84206D100BF75
:1044700022F00802CD682A4322F00402094DA84226
:1044800002D0094DA84207D123F4807323F40073AE
:104490004D692B438D692B43436084614D684563AF
:1044A000026230BD000001400004014030B5056AE1
:1044B00025F010050562026A4368846924F4E0442B
:1044C00024F440740D6844EA052422F020028D682B
:1044D00042EA0512124DA84200D103E0114DA84254
:1044E00007D100BF22F08002CD6842EA051222F017
:1044F00040020B4DA84202D00A4DA84209D123F434
:10450000806323F400634D6943EA85038D6943EAC0
:104510008503436084614D688563026230BD00009D
:10452000000001400004014030B5056A25F48075A3
:104530000562026A4368C46924F0700424F003042D
:104540000D682C4322F400728D6842EA0522124D58
:10455000A84200D103E0114DA84207D100BF22F4C8
:104560000062CD6842EA052222F480620A4DA84228
:1045700002D00A4DA84209D123F4805323F40053FA
:104580004D6943EA05138D6943EA05134360C4612D
:104590004D68C563026230BD000001400004014067
:1045A00030B5056A25F480550562036A4468C2691E
:1045B00022F4E04222F440720D6842EA052223F41C
:1045C00000538D6843EA0533084DA84202D0084DD8
:1045D000A84204D124F480444D6944EA851444601F
:1045E000C2614D680564036230BD000000000140F7
:1045F0000004014030B50B461446026A056A25F0F6
:1046000001050562816921F0F00141EA041122F0FF
:104610000A021A438161026230BD30B50B4614466E
:10462000056A25F0100505628169026A21F470416E
:1046300041EA043122F0A00242EA031281610262DF
:1046400030BD0000084988420CD109684A6A074910
:10465000096802EB0141064A116004490968491CD6
:10466000024A1160704700001C0200207000002008
:104670006C00002010B50348FEF7B2FC00F018F8FB
:1046800010BD00001C02002006480068416A064870
:10469000006801EB00400549086008460068C11742
:1046A000704700001C020020700000206C000020F9
:1046B0000020044908600449086004490968486208
:1046C000704700006C000020700000201C020020D9
:1046D00010B5FFF7EDFF0248FEF72EFC10BD0000FD
:1046E0001C02002000BFFEE703B4019841000098BF
:1046F00050EAC12018BF04204A0D18BF40F0010045
:1047000040F2FF72B2EB515F08BF40F00200012897
:1047100008BF052002B0704702480068C0F30220BD
:10472000704700000CED00E010B5002804DB0A071C
:10473000130E054A135406E00A07140E034A00F04C
:104740000F031B1FD45410BD00E400E018ED00E07F
:1047500030380A2801D2012070470020704700003D
:104760008EB0FDF71DFEFFF7FDFCFEF7EDFEFFF737
:1047700013F8FEF7F7FFFEF7AFFEFEF7D9FFFEF7DF
:10478000BDFFFFF767F8FCF7F7FF1C220C4907A8ED
:10479000FBF7E9FE002107A800F02BF809490860A3
:1047A0001C2207491C316846FBF7DDFE00216846E4
:1047B00000F01FF80449086000F016F800BFFEE79B
:1047C000CC54000824000020280000200021842868
:1047D00000D0C11C0846704710B5002800D1012048
:1047E00000F054FB002010BD10B500F077FB002056
:1047F00010BD30B585B004460D466169B4F90800B6
:10480000002910D0A16971B1FFF7E0FF6269A169C9
:104810000192029100902B4622692168606800F0A5
:1048200091FC049010E0FFF7D1FF04A901910090E2
:10483000208A2B4682B22168606800F04DFC012876
:1048400002D005B0002030BD049805B030BD000096
:104850002DE9F04104460F46194EF5683068001DF9
:1048600000F044FA48B93068012190F82C0001FAB0
:1048700000F0316921EA00003061B4F1FF3F07D157
:1048800037B13068BDE8F041011D0E4800F077BA3D
:104890002C4430684460AC4206D23068011DB06BD5
:1048A000BDE8F04100F050BA3068011D706B00F0B7
:1048B0004BFAB06A844200D2B462BDE8F0810000D5
:1048C00094000020BC06002070B5044600F064FA95
:1048D0001C4DA868401CA860286810B1686938B1F0
:1048E0000CE02C60A868012808D100F0EDF805E084
:1048F0002868E16AC06A884200D82C60686A401C57
:104900006862E06A01212A698140114329610E49E8
:1049100000EB800001EB8000211D00F030FA00F078
:104920005BFA686900280CD02868E16AC06A88428E
:1049300007D206494FF080500860BFF34F8FBFF396
:104940006F8F70BD94000020E005002004ED00E0B2
:1049500070B50D4C6068002815D00C4E00F01CFAA4
:10496000F068C568281D00F0C1F9A068401EA0606D
:104970006068401E606000F02FFA284600F008F8DA
:1049800060680028EAD170BD94000020A8060020CD
:1049900010B5044694F8511000290BD0012911D00C
:1049A000022914D0502080F31188BFF34F8FBFF33A
:1049B0006F8FFEE7206B00F025FA2046BDE810401F
:1049C00000F020BA2046BDE8104000F01BBA10BD30
:1049D0004FF47051104810F0070F06D0C01D20F0A2
:1049E00007000D49411AC1F570510C4A10600023AF
:1049F00053600144083921F00701183A11604B60F7
:104A00000B600B1A436001604068906050604FF08B
:104A10000040506170470000D0060020E8000020F0
:104A2000074E4FF08054074DFFF792FF3068012882
:104A3000FAD92C60BFF34F8FBFF36F8FF4E70000FC
:104A4000E005002004ED00E02DE9F0478146099ED5
:104A5000089D0A9C9A46521E206B00EB820020F0B3
:104A60000708002700290CD0002023180A5C83F8CF
:104A700034200A5C12B1401C1028F6D384F843702D
:104A800001E084F83470072D00D30625E5626564E3
:104A9000A764201D00F055F904F1180000F051F949
:104AA0002461C5F10700A0616462E76484F8507076
:104AB00052464946404600F003F92060002E00D0DF
:104AC0003460BDE8F087000070B500240F4D04EBA2
:104AD000840005EB800000F029F9641C072CF6D354
:104AE0000B4800F023F90B4800F020F90A4800F0C9
:104AF0001DF90A4800F01AF9094800F017F90948A9
:104B0000034941631431816370BD0000E00500205A
:104B10006C0600208006002094060020A8060020D5
:104B2000BC0600209400002010B4144900E0114697
:104B30000A688242FBD34B6803EB010C844503D126
:104B400040681844486008460C68D0F804C00CEB74
:104B50000003A3420CD10A4B1B689A4206D052684C
:104B6000624442600A681268026002E0036000E08A
:104B70000260814200D0086010BC7047E80000204D
:104B8000D00000200749486B0068002805D0486B1A
:104B9000C068C0684068886270474FF0FF30886224
:104BA00070470000940000200A484068B0F1FF3FC1
:104BB00007D0502080F31188BFF34F8FBFF36F8F62
:104BC000FEE7502080F31188BFF34F8FBFF36F8F44
:104BD000FEE70000F00000202DE9F0410546002628
:104BE00000F0C0F9344F386808B9FFF7F1FE786972
:104BF000054251D19DB1083515F0070F0FD005F0D2
:104C00000700C0F10800054415F0070F07D0502039
:104C100080F31188BFF34F8FBFF36F8FFEE7002D36
:104C20003AD07868854237D824490846046801E0BC
:104C3000214604466068A84202D220680028F7D1C5
:104C40003868844228D0086800F1080620680860A7
:104C50006068411B10290FD9601910F0070F07D0A9
:104C6000502080F31188BFF34F8FBFF36F8FFEE7A3
:104C700041606560FFF758FF61687868401A7860A6
:104C8000BA68904200D2B86078690843606000203A
:104C90002060F868401CF86000F0EEFA16F0070F8C
:104CA00007D0502080F31188BFF34F8FBFF36F8F71
:104CB000FEE73046BDE8F081D0000020E80000208B
:104CC000001F4FF080730360001F21F0010101609D
:104CD000001F0549016014380260001F6FF00201D7
:104CE0000160203870470000A94B00080169436843
:104CF00082689A60836842685A604A68824201D139
:104D000082684A60002202610868401E08600868E4
:104D100070470000034B0360034B0B60802313605C
:104D200070470000F40200204803002000F1080151
:104D300041604FF0FF328260C1600161002101607B
:104D4000704700210161704710B4D1F800C0BCF178
:104D5000FF3F02D000F1080202E0026904E01A46B7
:104D600053681C686445FAD953684B6099608A603F
:104D7000516008610168491C016010BC70474268BD
:104D80004A6093688B60936859609160086101681C
:104D9000491C016070470000502080F31188BFF368
:104DA0004F8FBFF36F8F0A494868401C4860012845
:104DB0000CD10848006810F0FF0F07D0502080F396
:104DC0001188BFF34F8FBFF36F8FFEE7704700006E
:104DD000F000002004ED00E009494868002806D0F2
:104DE000401E4860002801D180F311887047502090
:104DF00080F31188BFF34F8FBFF36F8FFEE7000082
:104E0000F000002070B500282AD0A0F10804154D4C
:104E100060686969084207D1502080F31188BFF3A8
:104E20004F8FBFF36F8FFEE722683AB1502080F3B7
:104E30001188BFF34F8FBFF36F8FFEE78843606029
:104E400000F090F860686968084468602046FFF7E1
:104E50006BFE2869401C2861BDE8704000F00CBA68
:104E600070BD0000D00000204FF0E0200021016163
:104E7000816105494FF47A720968B1FBF2F1491E6C
:104E800041610721016170473C00002010B50246D6
:104E90000020002A12D00F48006B38B1502080F358
:104EA0001188BFF34F8FBFF36F8FFEE700F05AF802
:104EB00000211046FFF7CCFC00F0DEF9002807D1F6
:104EC00005494FF080500860BFF34F8FBFF36F8FDD
:104ED00010BD00009400002004ED00E010B586B085
:104EE00000240594049403AA04A905A8FFF712FF5F
:104EF00005980499019102900023009415A1174888
:104F0000039A00F01FF91649C86208B1012000E0B9
:104F1000002001280AD0B0F1FF3F19D1502080F3C2
:104F20001188BFF34F8FBFF36F8FFEE7502080F3E0
:104F30001188BFF34F8FBFF36F8F4FF0FF30886240
:104F400001204861CC6006B0BDE8104000F042B8D6
:104F500006B010BD49444C4500000000214A00083D
:104F6000940000200248016B491C01637047000057
:104F700094000020154A106B002802D00120D06157
:104F800070470020D0611069B0FA80F0C0F11F00B6
:104F90000F4900EB800051F8203073B101EB800025
:104FA00041684968416000F10803994201D14968AC
:104FB00041604068C06810607047502080F31188DD
:104FC000BFF34F8FBFF36F8FFEE700009400002008
:104FD000E005002010B582B038480168384A914297
:104FE00007D1502080F31188BFF34F8FBFF36F8F2D
:104FF000FEE700683349884207D1502080F31188CA
:10500000BFF34F8FBFF36F8FFEE72F4908780190F2
:10501000FF200870087800909DF800009DF800209F
:1050200000F0F000904207D0502080F31188BFF3C9
:105030004F8FBFF36F8FFEE79DF80000234C00F009
:10504000500020700720A0609DF8000010F0800F35
:105050000BD0A068401EA0609DF8000040000090AA
:105060009DF8000010F0800FF3D1A068032807D04E
:10507000502080F31188BFF34F8FBFF36F8FFEE78F
:105080004FF44070A060019808701148016841F425
:1050900070010160016841F070410160FFF7E4FEBA
:1050A00000206060FBF7F0F80A48016841F04041D9
:1050B0000160FBF7D5F802B0002010BD00ED00E064
:1050C00071C20F4170C20F4100E400E0F000002007
:1050D00020ED00E034EF00E02DE9F04F85B081468F
:1050E0000F9F0E9E8A4690469B464FEA8800FFF728
:1050F00073FD054628000AD05420FFF76DFD0446D5
:105100000CB1256304E02846FFF77CFE00E0002494
:105110009CB1002084F8510003905B464246514602
:105120000197009602944846FFF78EFC2046FFF751
:10513000CBFB05B00120BDE8F08F05B04FF0FF308C
:10514000BDE8F08F70B586B00646DDF828C00C9C2F
:105150000B98002816D0ECB154250495206302204A
:1051600084F85100002005AD0390CDF800C00195F2
:1051700002943046FFF768FC2046FFF7A5FB059830
:1051800006B070BD502080F31188BFF34F8FBFF37E
:105190006F8FFEE7502080F31188BFF34F8FBFF36E
:1051A0006F8FFEE72DE9F0470026314F386B00285E
:1051B00005D0B869401CB8613046BDE8F087F86892
:1051C000451CFD609DB9786B006838B1502080F3B4
:1051D0001188BFF34F8FBFF36F8FFEE7786BB96B0A
:1051E0007963B863386A401C3862FFF7CBFCB86A51
:1051F000DFF8808085420FD34FF00109786B00689B
:1052000038B1786BC068C4686068854212D2B862F1
:1052100002E04FF0FF30B8623868C06A00EB8000EF
:1052200058F82000012800D90126F8690028C3D0C9
:105230000126C1E7201DFFF759FDA06A18B104F14E
:105240001800FFF753FDE16A3A6909FA01F01043CB
:10525000386101EB810008EB8000211DFFF78FFD15
:10526000E06A3968C96A8842C8D30126C6E70000E7
:1052700094000020E00500202DE9F0470024A0461E
:105280002D4D286B002807D0FFF786FD286B401EA8
:105290002863286B40B149E0502080F31188BFF3A8
:1052A0004F8FBFF36F8FFEE7A86800283ED0234FD3
:1052B0003868012600B3A7F1B409F868C46804F19E
:1052C0001800FFF713FD201DFFF710FDE06A2A69A3
:1052D00006FA00F11143296100EB800009EB800020
:1052E000211DFFF74CFDE06A2968C96A884200D396
:1052F000EE6138680028E0D10CB1FFF743FCAC69DF
:1053000044B1FFF74FFF00B1EE61641E002CF8D1ED
:105310000020A861E86948B14FF0010808494FF042
:1053200080500860BFF34F8FBFF36F8FFFF754FDBE
:105330004046BDE8F087000094000020940600205D
:1053400004ED00E010B500290AD00878002807D045
:1053500005487844FBF7BEFC002801D0002010BDB2
:105360000248784410BD0000AA0A0000A20A00000A
:105370000808A0F500114FEA3101704743004FEAD9
:10538000D30C4FEA3C0C43401FBF40070CF1605167
:1053900013F0FE4F70471CF0006F03D100200CF09B
:1053A000004170470CF0004343EA507010B540EAEA
:1053B000CC0000F03EF800BF000000924FEA000170
:1053C000FFF7D6BF4FF000414FF00000A1F50021DC
:1053D00070474FF07E5209E011F0004204D5404280
:1053E000C1F1000138BF491E42F07E520B0002F1AC
:1053F000706212BF20235FEA00017047B1FA81FC9E
:10540000A3EB0C0301FA0CF120FA03FC02EBC352EC
:10541000C3F1200341EA0C0110FA03FC5CEA416C81
:1054200042EB112018BF5FF0806C28BF20F0010014
:1054300070470EF1020E2EF0030E5EF8044B24426C
:1054400004D44FEA4102B2F17F4F11D84FEA400332
:10545000B3F17F4F0CD80ED14FEAD07CB2F17F4F21
:105460000CEB4C0C0CF1020C08BF4CEBD17C04E0B3
:105470004FF0080C01E04FEAD17C0CEB4C0324FA0E
:1054800003F404F00704B4F1040C06D20EEB840C10
:10549000BDE810404CF0010C6047DFE80CF0070855
:1054A00002024FF00040A0F5800010BD0846420007
:1054B00018BFD2F1807288BF00F0004010BD4FF0DD
:1054C0004070E1EE100A7047FBF782B9D45D000826
:1054D000BD1600080200000000000000800000006F
:1054E0000000000000000000C85D00089D3B0008AF
:1054F000FEFF00000000000080000000000000002F
:105500000000000000000000000000000102030491
:105510000607080900000000010203040000000063
:1055200000000000002F000000000700070000142A
:105530007F147F1400242A7F2A1200626408132338
:1055400000364955225000000503000000001C22CF
:105550004100000041221C000014083E081400080D
:10556000083E0808000000A06000000808080808BD
:10557000000060600000002010080402003E514955
:10558000453E0000427F40000042615149460021F3
:1055900041454B31001814127F100027454545390D
:1055A000003C4A4949300001710905030036494968
:1055B000493600064949291E000036360000000021
:1055C000563600000008142241000014141414146C
:1055D0000000412214080002015109060032495915
:1055E000513E007C1211127C007F49494936003E31
:1055F00041414122007F4141221C007F49494941EC
:10560000007F09090901003E4149497A007F0808E5
:10561000087F0000417F4100002040413F01007FA2
:1056200008142241007F40404040007F020C027F6E
:10563000007F0408107F003E4141413E007F090980
:105640000906003E4151215E007F091929460046A6
:10565000494949310001017F0101003F4040403F7D
:10566000001F2040201F003F4038403F00631408C7
:1056700014630007087008070061514945430000A2
:105680007F41410000552A552A55000041417F00C5
:1056900000040201020400404040404000000102BA
:1056A0000400002054545478007F484444380038A3
:1056B0004444442000384444487F0038545454182B
:1056C00000087E0901020018A4A4A47C007F08043D
:1056D00004780000447D4000004080847D00007F0D
:1056E000102844000000417F4000007C041804782A
:1056F000007C0804047800384444443800FC242426
:1057000024180018242418FC007C0804040800480D
:105710005454542000043F444020003C4040207C2E
:10572000001C2040201C003C4030403C004428101D
:105730002844001CA0A0A07C004464544C441414D1
:105740001414141400000000000000000000000009
:1057500000000000000000F800000000000000331E
:105760003000000000100C06100C060000000000C5
:105770000000000040C07840C0784000043F0404AE
:105780003F040400007088FC08300000001820FF6F
:10579000211E0000F008F000E018000000211C03AA
:1057A0001E211E0000F00888700000001E21232426
:1057B0001927211010160E00000000000000000044
:1057C00000000000000000E01804020000000007D4
:1057D0001820400000020418E000000000402018DB
:1057E00007000000404080F0804040000202010FAE
:1057F00001020200000000F0000000000101011F92
:1058000001010100000000000000000080B07000F5
:105810000000000000000000000000000001010185
:105820000101010100000000000000000030300014
:1058300000000000000000008060180400601806EE
:105840000100000000E010080810E000000F102028
:1058500020100F00001010F8000000000020203F72
:1058600020200000007008080888700000302824FC
:10587000222130000030088888483000001820209D
:1058800020110E000000C02010F8000000070424C2
:10589000243F240000F80888880808000019212007
:1058A00020110E0000E0108888180000000F112061
:1058B00020110E0000380808C83808000000003F1A
:1058C000000000000070880808887000001C222179
:1058D00021221C0000E010080810E0000000312226
:1058E00022110F00000000C0C000000000000030C6
:1058F0003000000000000080000000000000806018
:105900000000000000008040201008000001020498
:10591000081020004040404040404000040404047F
:10592000040404000008102040800000002010083B
:1059300004020100007048080808F0000000003070
:1059400036010000C030C828E810E00007182724FE
:1059500023140B000000C038E0000000203C2302AC
:105960000227382008F8888888700000203F20200F
:1059700020110E00C0300808080838000718202041
:105980002010080008F808080810E000203F202038
:1059900020100F0008F88888E8081000203F202019
:1059A0002320180008F88888E8081000203F20000D
:1059B00003000000C0300808083800000718202045
:1059C000221E020008F808000008F808203F210104
:1059D00001213F20000808F8080800000020203FAF
:1059E0002020000000000808F8080800C08080801F
:1059F0007F00000008F888C028180800203F200118
:105A00002638200008F8080000000000203F202071
:105A10002020300008F8F800F8F80800203F003F88
:105A2000003F200008F830C00008F808203F2000A0
:105A300007183F00E01008080810E0000F102020B1
:105A400020100F0008F808080808F000203F210186
:105A500001010000E01008080810E0000F182424DD
:105A600038504F0008F8888888887000203F200050
:105A7000030C302000708808080838000038202106
:105A800021221C00180808F8080818000000203F10
:105A90002000000008F808000008F808001F202077
:105AA00020201F000878880000C838080000073848
:105AB0000E010000F80800F80008F800033C070099
:105AC000073C0300081868808068180820302C0301
:105AD000032C30200838C800C83808000000203FD8
